:1000000004EF00F0FFFFFFFFFEEC22F0FF0ED36EC7
:100010000F0EC16E060E926EAA0E936E8A0E946E2D
:10002000A90E956EF7EC23F0800E356E0F0E366E2E
:10003000376A65EC23F0700E02016D6F030E6E6F70
:10004000640E6F6F000E706F9CEC1FF0DEEC23F0FF
:100050004C0E02016D6F040E6E6F640E6F6F000E1A
:10006000706F9CEC1FF0F7EC23F0780E02016D6FBF
:10007000050E6E6F640E6F6F000E706F9CEC1FF0BC
:10008000DEEC23F0080E02016D6F070E6E6FF40EAA
:100090006F6F010E706F9CEC1FF0F7EC23F0016A9C
:1000A00080B2012A0150010AD8A46BD0016A81B63E
:1000B000012A0150010A0EE1016A81BA012A0150A8
:1000C000010A08E1016A81BE012A0150010A02E128
:1000D00002EC1BF0010E8314016E0150010A02E1D3
:1000E00060EC09F0016A82B2012A0150010A02E1C2
:1000F000BFEC0CF0838683A602D0B3EC12F0016A49
:1001000082BE012A0150010A02E1FDEC20F0016AE1
:1001100083BA012A0150010A02E15FEC1CF0016A76
:1001200083BE012A0150010A02E18DEC15F0016A3B
:1001300081B2012A0150010A02E1F6EC04F0016AE1
:1001400081B6012A0150010A02E1DFEC17F0016AD1
:1001500081BA012A0150010A02E1C1EC0FF0016AE3
:1001600081BE012A0150010A02E195EC22F0016AE8
:1001700080B4012A0150010A02E1A8EC1DF0F3EF5E
:1001800004F0010E8314016E0150010A36E1016A88
:1001900082B2012A0150000A30E1016A81BE012ABF
:1001A0000150000A2AE1016A81BA012A0150000ABD
:1001B00024E183828080030E0B6EFF0E0A6E0B2EED
:1001C00001D003D00A2EFED7FAD7F00E0A6E0A2EFF
:1001D000FED7000000008090030E0B6EFF0E0A6E2B
:1001E0000B2E01D003D00A2EFED7FAD7F00E0A6EDE
:1001F0000A2EFED7000000008392010E8314016EC8
:100200000150010A28E1016A82B2012A0150010A63
:1002100022E1838282848080030E0B6EFF0E0A6EC1
:100220000B2E01D003D00A2EFED7FAD7C60E0A6EC7
:100230000A2EFED78090030E0B6EFF0E0A6E0B2E59
:1002400001D003D00A2EFED7FAD7C60E0A6E0A2EA8
:10025000FED783928294016A82B2012A0150010A78
:1002600032E1010E8314016E0150000A2CE1016A93
:1002700083B6012A0150000A26E1016A80B4012AEE
:100280000150000A20E182848080030E0B6EFF0E75
:100290000A6E0B2E01D003D00A2EFED7FAD79E0E7F
:1002A0000A6E0A2EFED78090030E0B6EFF0E0A6EAA
:1002B0000B2E01D003D00A2EFED7FAD79E0E0A6E5F
:1002C0000A2EFED78294016A83B6012A0150010AE0
:1002D0002EE1016A82BE012A0150000A28E1016A6A
:1002E00080B4012A0150000A22E183848080030E39
:1002F0000B6EFF0E0A6E0B2E01D003D00A2EFED716
:10030000FAD7790E0A6E0A2EFED700008090030EEF
:100310000B6EFF0E0A6E0B2E01D003D00A2EFED7F5
:10032000FAD7790E0A6E0A2EFED700008394016A6E
:1003300083B6012A0150010A2CE1016A82BE012A1A
:100340000150010A26E18384828C8080030E0B6EAB
:10035000FF0E0A6E0B2E01D003D00A2EFED7FAD75D
:10036000540E0A6E0A2EFED7000000008090030E85
:100370000B6EFF0E0A6E0B2E01D003D00A2EFED795
:10038000FAD7540E0A6E0A2EFED70000000083949E
:10039000829C016A82BE012A0150010A2CE1016A95
:1003A00083B6012A0150000A26E1016A83BA012AB4
:1003B0000150000A20E1828C8080030E0B6EFF0E3C
:1003C0000A6E0B2E01D003D00A2EFED7FAD7340EB8
:1003D0000A6E0A2EFED78090030E0B6EFF0E0A6E79
:1003E0000B2E01D003D00A2EFED7FAD7340E0A6E98
:1003F0000A2EFED7829C016A82BE012A0150010AA0
:100400002CE1016A83BA012A0150010A26E1828C9B
:1004100083888080030E0B6EFF0E0A6E0B2E01D0B8
:1004200003D00A2EFED7FAD7120E0A6E0A2EFED776
:10043000000000008090030E0B6EFF0E0A6E0B2E64
:1004400001D003D00A2EFED7FAD7120E0A6E0A2E5A
:10045000FED700000000829C8398016A83BA012ABB
:100460000150010A30E1016A82BE012A0150000AEE
:100470002AE1016A83BE012A0150000A24E183882F
:100480008080020E0B6EFF0E0A6E0B2E01D003D081
:100490000A2EFED7FAD7F60E0A6E0A2EFED70000F5
:1004A00000008090020E0B6EFF0E0A6E0B2E01D024
:1004B00003D00A2EFED7FAD7F60E0A6E0A2EFED702
:1004C000000000008398016A83BE012A0150010ADE
:1004D00026E1016A81B2012A0150000A20E1838CE1
:1004E0008080020E0B6EFF0E0A6E0B2E01D003D021
:1004F0000A2EFED7FAD7DA0E0A6E0A2EFED78090A1
:10050000020E0B6EFF0E0A6E0B2E01D003D00A2EC8
:10051000FED7FAD7DA0E0A6E0A2EFED7839C016A3E
:1005200083BE012A0150010A2CE1016A81B2012A2D
:100530000150010A26E1838C81808080020E0B6EBF
:10054000FF0E0A6E0B2E01D003D00A2EFED7FAD76B
:10055000BE0E0A6E0A2EFED7000000008090020E2A
:100560000B6EFF0E0A6E0B2E01D003D00A2EFED7A3
:10057000FAD7BE0E0A6E0A2EFED700000000839C3A
:100580008190016A81B2012A0150010A2EE1016ABB
:1005900083BE012A0150000A28E1016A81B6012ABE
:1005A0000150000A22E181808080020E0B6EFF0E56
:1005B0000A6E0B2E01D003D00A2EFED7FAD7A50E55
:1005C0000A6E0A2EFED700008090020E0B6EFF0E00
:1005D0000A6E0B2E01D003D00A2EFED7FAD7A50E35
:1005E0000A6E0A2EFED700008190016A81B2012AAC
:1005F0000150010A28E1016A81B6012A0150010A6D
:1006000022E1818081848080020E0B6EFF0E0A6ED3
:100610000B2E01D003D00A2EFED7FAD78E0E0A6E0B
:100620000A2EFED78090020E0B6EFF0E0A6E0B2E66
:1006300001D003D00A2EFED7FAD78E0E0A6E0A2EEC
:10064000FED781908194016A81B6012A0150010A86
:100650002EE1016A81B2012A0150000A28E1016AF3
:1006600081BA012A0150000A22E181848080020EB1
:100670000B6EFF0E0A6E0B2E01D003D00A2EFED792
:10068000FAD7770E0A6E0A2EFED700008090020E6F
:100690000B6EFF0E0A6E0B2E01D003D00A2EFED772
:1006A000FAD7770E0A6E0A2EFED700008194016AEF
:1006B00081B6012A0150010A28E1016A81BA012AA2
:1006C0000150010A22E1818481888080020E0B6E34
:1006D000FF0E0A6E0B2E01D003D00A2EFED7FAD7DA
:1006E000620E0A6E0A2EFED78090020E0B6EFF0E6F
:1006F0000A6E0B2E01D003D00A2EFED7FAD7620E57
:100700000A6E0A2EFED781948198016A81BA012A65
:100710000150010A32E1016A81B6012A0150000A42
:100720002CE1016A81BE012A0150000A26E1010E76
:100730008314016E0150000A20E181888080020E3E
:100740000B6EFF0E0A6E0B2E01D003D00A2EFED7C1
:10075000FAD74E0E0A6E0A2EFED78090020E0B6E4E
:10076000FF0E0A6E0B2E01D003D00A2EFED7FAD749
:100770004E0E0A6E0A2EFED78198016A81BE012AAA
:100780000150010A2EE1016A80B4012A0150000AD9
:1007900028E1010E8314016E0150000A22E1818CD0
:1007A0008080020E0B6EFF0E0A6E0B2E01D003D05E
:1007B0000A2EFED7FAD73B0E0A6E0A2EFED700008D
:1007C0008090020E0B6EFF0E0A6E0B2E01D003D02E
:1007D0000A2EFED7FAD73B0E0A6E0A2EFED700006D
:1007E000819C016A81BE012A0150010A2AE1016A45
:1007F00080B4012A0150010A24E1818C8086808026
:10080000020E0B6EFF0E0A6E0B2E01D003D00A2EC5
:10081000FED7FAD7290E0A6E0A2EFED70000809066
:10082000020E0B6EFF0E0A6E0B2E01D003D00A2EA5
:10083000FED7FAD7290E0A6E0A2EFED70000819C39
:100840008096016A80B4012A0150010A36E1016AEA
:1008500081BE012A0150000A30E1016A82B2012AF8
:100860000150000A2AE1016A83B6012A0150000AF8
:1008700024E180868080020E0B6EFF0E0A6E0B2E26
:1008800001D003D00A2EFED7FAD7180E0A6E0A2E10
:10089000FED7000000008090020E0B6EFF0E0A6E65
:1008A0000B2E01D003D00A2EFED7FAD7180E0A6EEF
:1008B0000A2EFED7000000008096010E8314016E00
:1008C0000150010A28E1016A81BE012A0150010A92
:1008D00022E18382818C8080040E0B6EFF0E0A6EF3
:1008E0000B2E01D003D00A2EFED7FAD74C0E0A6E7B
:1008F0000A2EFED78090040E0B6EFF0E0A6E0B2E92
:1009000001D003D00A2EFED7FAD74C0E0A6E0A2E5B
:10091000FED78392819C010E8314016E0150010A5F
:100920002CE1016A81BA012A0150010A26E1838281
:1009300081888080040E0B6EFF0E0A6E0B2E01D094
:1009400003D00A2EFED7FAD7B40E0A6E0A2EFED7AF
:10095000000000008090040E0B6EFF0E0A6E0B2E3E
:1009600001D003D00A2EFED7FAD7B40E0A6E0A2E93
:10097000FED70000000083928198016A80B4012AAA
:100980000150010A14E1016A82B2012A0150010AF0
:100990000EE1808682848080FD0E0A6E0A2EFED7CC
:1009A0008090FD0E0A6E0A2EFED780968294016A10
:1009B00080B4012A0150010A16E1016A83B6012AB6
:1009C0000150010A10E1808683848080EE0E0A6E59
:1009D0000A2EFED700008090EE0E0A6E0A2EFED779
:1009E0000000809683944FEF00F0FFD7490E356EDC
:1009F000010E366E880E376E010E386E5D0E396E42
:100A0000010E3A6E490E3B6E010E3C6EB80E3D6E05
:100A1000010E3E6E880E3F6E010E406E050E416E59
:100A2000010E426E250E436E010E446E490E456E58
:100A3000010E466E250E476E010E486E050E496E7C
:100A4000010E4A6E000E4B6E000E4C6E880E4D6EFF
:100A5000010E4E6E490E4F6E010E506E000E516E1D
:100A6000000E526E050E536E010E546EB80E556E8A
:100A7000010E566E880E576E010E586EB80E596EE6
:100A8000010E5A6E880E5B6E010E5C6E5D0E5D6E21
:100A9000010E5E6E490E5F6E010E0001606F050E65
:100AA000616F010E626FF70E636F000E646F000ED0
:100AB000656F000E666F050E676F010E686F490E59
:100AC000696F010E6A6F490E6B6F010E6C6F720ECB
:100AD0006D6F010E6E6F880E6F6F010E706FB80E26
:100AE000716F010E726F000E736F000E746FEE0E59
:100AF000756F010E766F880E776F010E786F000E9E
:100B0000796F000E7A6F880E7B6F010E7C6FEE0E90
:100B10007D6F010E7E6F4A0E7F6F020E806FEE0EAC
:100B2000816F010E826F880E836F010E846F5D0EE0
:100B3000856F010E866F5D0E876F010E886F000E48
:100B4000896F000E8A6F490E8B6F010E8C6F000E3D
:100B50008D6F000E8E6F880E8F6F010E906F490E95
:100B6000916F010E926F050E936F010E946FC40E7C
:100B7000956F000E966F050E976F010E986F250EFC
:100B8000996F010E9A6F490E9B6F010E9C6F880E34
:100B90009D6F010E9E6F250E9F6F010EA06F000EC0
:100BA000A16F000EA26F250EA36F010EA46F490E58
:100BB000A56F010EA66F050EA76F010EA86F050E9B
:100BC000A96F010EAA6F000EAB6F000EAC6F5D0E29
:100BD000AD6F010EAE6F880EAF6F010EB06F490E94
:100BE000B16F010EB26F000EB36F000EB46F880EBE
:100BF000B56F010EB66F0A0EB76F020EB86F880E92
:100C0000B96F010EBA6F880EBB6F010EBC6FD20EAA
:100C1000BD6F010EBE6F9F0EBF6F010EC06F880EBD
:100C2000C16F010EC26F250EC36F010EC46F000E9F
:100C3000C56F000EC66F250EC76F010EC86F5D0E23
:100C4000C96F010ECA6F370ECB6F010ECC6F880EC5
:100C5000CD6F010ECE6F880ECF6F010ED06F880E54
:100C6000D16F010ED26F5D0ED36F010ED46F370EB0
:100C7000D56F010ED66F250ED76F010ED86F000EFF
:100C8000D96F000EDA6F250EDB6F010EDC6F000EE0
:100C9000DD6F000EDE6F250EDF6F010EE06F5D0E63
:100CA000E16F010EE26F370EE36F010EE46F880E05
:100CB000E56F010EE66F880EE76F010EE86F880E94
:100CC000E96F010EEA6F5D0EEB6F010EEC6F370EF0
:100CD000ED6F010EEE6F880EEF6F010EF06FEE0EEE
:100CE000F16F010EF26FB80EF36F010EF46F880E04
:100CF000F56F010EF66F5D0EF76F010EF86F490E7E
:100D0000F96F010EFA6F880EFB6F010EFC6F0A0E71
:100D1000FD6F020EFE6FEE0EFF6F010E0101006F00
:100D2000000E016F000E026F5D0E036F010E046F67
:100D3000B80E056F010E066F880E076F010E086F63
:100D4000050E096F010E0A6F250E0B6F010E0C6F59
:100D5000490E0D6F010E0E6F490E0F6F010E106FD1
:100D6000880E116F010E126F490E136F010E146F72
:100D7000250E156F010E166F000E176F000E186FFF
:100D8000880E196F010E1A6F0A0E1B6F020E1C6F70
:100D9000EE0E1D6F010E1E6F000E1F6F000E206FF6
:100DA0005D0E216F010E226FB80E236F010E246FAE
:100DB000880E256F010E266F0A0E276F020E286F10
:100DC0004A0E296F020E2A6F920E2B6F020E2C6FA5
:100DD000920E2D6F020E2E6F4A0E2F6F020E306F85
:100DE0000A0E316F020E326F0A0E336F020E346F2D
:100DF000000E356F000E366F490E376F010E386FDB
:100E00005D0E396F010E3A6F880E3B6F010E3C6F1D
:100E1000B80E3D6F010E3E6FB80E3F6F010E406F72
:100E2000880E416F010E426F880E436F010E446FB2
:100E30000A0E456F020E466F880E476F010E486F0F
:100E4000050E496F010E4A6FE80E4B6F030E4C6F93
:100E5000E80E4D6F030E4E6FE80E4F6F030E506F8E
:100E6000F40E516F010E526FF40E536F010E546F5A
:100E7000F40E556F010E566F2C0E576F010E586F02
:100E8000C80E596F000E5A6FF40E5B6F010E5C6F47
:100E9000F40E5D6F010E5E6FE80E5F6F030E606F04
:100EA000900E616F010E626FC80E636F000E646F6B
:100EB000C80E656F000E666F320E676F000E686FAA
:100EC000C80E696F000E6A6FE80E6B6F030E6C6FD1
:100ED000BC0E6D6F020E6E6FC80E6F6F000E706FDE
:100EE000F40E716F010E726FF40E736F010E746F5A
:100EF0005E0E756F010E766F960E776F000E786F2F
:100F0000C80E796F000E7A6F320E7B6F000E7C6F09
:100F1000C80E7D6F000E7E6FF40E7F6F010E806F26
:100F2000F40E816F010E826F2C0E836F010E846FA1
:100F3000960E856F000E866FC80E876F000E886F45
:100F4000320E896F000E8A6FC80E8B6F000E8C6F89
:100F5000E80E8D6F030E8E6F900E8F6F010E906FE7
:100F6000FA0E916F000E926FC80E936F000E946F81
:100F7000E80E956F030E966FF40E976F010E986F43
:100F80002C0E996F010E9A6FC80E9B6F000E9C6F0E
:100F9000E80E9D6F030E9E6F320E9F6F000EA06FC6
:100FA000900EA16F010EA26F5A0EA36F000EA46FD8
:100FB0002C0EA56F010EA66FC80EA76F000EA86FAE
:100FC000BC0EA96F020EAA6FC80EAB6F000EAC6FFD
:100FD0002C0EAD6F010EAE6FC80EAF6F000EB06F6E
:100FE0002C0EB16F010EB26FC80EB36F000EB46F4E
:100FF000E80EB56F030EB66FE70EB76F030EB86F4E
:10100000EE0EB96F020EBA6FFA0EBB6F000EBC6F18
:10101000F40EBD6F010EBE6FF40EBF6F010EC06FF8
:10102000190EC16F000EC26FEE0EC36F020EC46FB9
:10103000FA0EC56F000EC66F580EC76F020EC86F4E
:10104000960EC96F000ECA6FFA0ECB6F000ECC6FF2
:10105000BC0ECD6F020ECE6FFA0ECF6F000ED06FAA
:10106000FA0ED16F000ED26FC20ED36F010ED46F85
:10107000FA0ED56F000ED66FC20ED76F010ED86F65
:10108000580ED96F020EDA6F900EDB6F010EDC6F17
:101090005E0EDD6F010EDE6F960EDF6F000EE06FED
:1010A000F40EE16F010EE26F5E0EE36F010EE46F6E
:1010B000960EE56F000EE66FF40EE76F010EE86F17
:1010C0005E0EE96F010EEA6F960EEB6F000EEC6F8D
:1010D000C20EED6F010EEE6F320EEF6F000EF06F6D
:1010E000580EF16F020EF26F900EF36F010EF46F57
:1010F0005E0EF56F010EF66F960EF76F000EF86F2D
:10110000F40EF96F010EFA6F5E0EFB6F010EFC6FAD
:10111000960EFD6F000EFE6FF40EFF6F010E0201C2
:10112000006F5E0E016F010E026F960E036F000ED0
:10113000046FF40E056F010E066FFA0E076F000EB6
:10114000086FFA0E096F000E0A6FFA0E0B6F000E91
:101150000C6FFA0E0D6F000E0E6FFA0E0F6F000E71
:10116000106FB40E116F000E126F4C0E136F040E41
:10117000146F580E156F020E166FC80E176F000E03
:10118000186FC80E196F000E1A6F4C0E1B6F040EED
:101190001C6FF40E1D6F010E1E6F5E0E1F6F010E91
:1011A000206F960E216F000E226FF40E236F010E3A
:1011B000246FF40E256F010E266FF40E276F010EBB
:1011C000286FF40E296F010E2A6FE80E2B6F030EA5
:1011D0002C6FBC0E2D6F020E2E6FB40E2F6F000EF3
:1011E000306F4C0E316F040E326F580E336F020E9B
:1011F000346FC80E356F000E366FC80E376F000E95
:10120000386F4C0E396F040E3A6FF40E3B6F010EBF
:101210003C6F2C0E3D6F010E3E6F960E3F6F000E21
:10122000406FF40E416F010E426FF40E436F010EDA
:10123000446F840E456F030E466FC80E476F000E55
:10124000486F200E496F030E4A6FF40E4B6F010E6C
:101250004C6FFA0E4D6F000E4E6FFA0E4F6F000E70
:10126000506FFA0E516F000E526FF40E536F010E55
:10127000546FF40E556F010E566F200E576F030E0C
:10128000586FC80E596F000E5A6FF40E5B6F010E47
:101290005C6FF40E5D6F010E5E6F580E5F6F020E95
:1012A000606F8B0E616F000E626F350E636F000E04
:1012B000646F4B0E656F010E666FD1EC1EF012006D
:1012C000060E3F6E000E406E030E416E000E426E23
:1012D000040E436E000E446E050E456E000E466E03
:1012E000040E476E000E486E030E496E000E4A6EE5
:1012F000020E4B6E000E4C6E020E4D6E000E4E6EC8
:10130000040E4F6E000E506E060E516E000E526EA1
:10131000050E536E000E546E040E556E000E566E82
:10132000030E576E000E586E010E596E000E5A6E67
:10133000040E5B6E000E5C6E050E5D6E000E5E6E42
:10134000060E5F6E000E0001606F040E616F000EEE
:10135000626F020E636F000E646F020E656F000E07
:10136000666F010E676F000E686F050E696F000EE5
:101370006A6F050E6B6F000E6C6F070E6D6F000EBF
:101380006E6F090E6F6F000E706F080E716F000E9A
:10139000726F070E736F000E746F060E756F000E7E
:1013A000766F010E776F000E786F040E796F000E66
:1013B0007A6F060E7B6F000E7C6F050E7D6F000E40
:1013C0007E6F040E7F6F000E806F030E816F000E24
:1013D000826F030E836F000E846F040E856F000E04
:1013E000866F050E876F000E886F060E896F000EE0
:1013F0008A6F040E8B6F000E8C6F020E8D6F000EC5
:101400008E6F020E8F6F000E906F010E916F000EA7
:10141000926F936B946B956B966B976B986B996BC4
:101420009A6B9B6B9C6B9D6B9E6B9F6BA06BA16B78
:10143000A26B020EA36F000EA46F010EA56F000E2B
:10144000A66F010EA76F000EA86F020EA96F000E07
:10145000AA6F010EAB6F000EAC6F010EAD6F000EE8
:10146000AE6F020EAF6F000EB06F010EB16F000EC7
:10147000B26F010EB36F000EB46F020EB56F000EA7
:10148000B66F010EB76F000EB86F010EB96F000E88
:10149000BA6F020EBB6F000EBC6F010EBD6F000E67
:1014A000BE6F010EBF6F000EC06F020EC16F000E47
:1014B000C26F020EC36F000EC46F020EC56F000E26
:1014C000C66F020EC76F000EC86F020EC96F000E06
:1014D000CA6F030ECB6F000ECC6F010ECD6F000EE6
:1014E000CE6F010ECF6F000ED06F010ED16F000EC8
:1014F000D26F020ED36F000ED46F010ED56F000EA7
:10150000D66F010ED76F000ED86F020ED96F000E86
:10151000DA6F010EDB6F000EDC6F010EDD6F000E67
:10152000DE6F020EDF6F000EE06F010EE16F000E46
:10153000E26F010EE36F000EE46F020EE56F000E26
:10154000E66F010EE76F000EE86F010EE96F000E07
:10155000EA6F020EEB6F000EEC6F020EED6F000EE5
:10156000EE6F020EEF6F000EF06F020EF16F000EC5
:10157000F26F020EF36F000EF46F020EF56F000EA5
:10158000F66FF76BF86BF96BFA6BFB6BFC6BFD6B33
:10159000FE6BFF6B0101006B016B026B036B046B55
:1015A000056B066B376A386A0101800E3818006EC9
:1015B000800E005C02E12A0E375C0101D8B0DED15A
:1015C000010E046E37C000F038C001F00450010174
:1015D00005E0003600900136FF0FF9D70101A30E98
:1015E0000024E96E000E0120EA6EEECF3DF0EECF52
:1015F0003EF018D00101C80E356E000E366E2FD0A9
:101600000101900E356E010E366E29D00101580E83
:10161000356E020E366E23D00101640E356E000E5B
:10162000366E1DD00101000E3E1802E1010E3D187C
:101630000101E0E0000E3E1802E1020E3D1801013A
:10164000DFE0000E3E1802E1030E3D180101DEE06E
:10165000000E3E1802E1040E3D180101DDE001011B
:10166000010E046E37C000F038C001F004500101D3
:1016700005E0003600900136FF0FF9D701013F0E5B
:101680000024E96E000E0120EA6EEECF3BF0EECFB3
:101690003CF023D10101396A3A6A0101800E3A18FF
:1016A000006E800E3618005C02E13550395C010195
:1016B00011E2030E0B6EFF0E0A6E0B2E01D003D04B
:1016C0000A2EFED7FAD7960E0A6E0A2EFED7394A90
:1016D0003A2AE3D701013ED10101838219C000F00B
:1016E0001AC001F01BC002F01CC003F0000E046E13
:1016F000000E056E000E066E800E076E92EC21F055
:1017000026EC22F000C06DF201C06EF235C06FF21F
:1017100036C070F29CEC1FF01DD182841DC000F019
:101720001EC001F01FC002F020C003F0000E046EC6
:10173000000E056E000E066E800E076E92EC21F014
:1017400026EC22F000C06DF201C06EF235C06FF2DF
:1017500036C070F29CEC1FF0FDD0838421C000F0F5
:1017600022C001F023C002F024C003F0000E046E7A
:10177000000E056E000E066E810E076E92EC21F0D3
:1017800026EC22F000C06DF201C06EF235C06FF29F
:1017900036C070F29CEC1FF0DDD0828C25C000F0CA
:1017A00026C001F027C002F028C003F0000E046E2E
:1017B000000E056E000E066E810E076E92EC21F093
:1017C00026EC22F000C06DF201C06EF235C06FF25F
:1017D00036C070F29CEC1FF0BDD0838829C000F0A9
:1017E0002AC001F02BC002F02CC003F0000E046EE2
:1017F000000E056E000E066E810E076E92EC21F053
:1018000026EC22F000C06DF201C06EF235C06FF21E
:1018100036C070F29CEC1FF09DD0838C2DC000F080
:101820002EC001F02FC002F030C003F0000E046E95
:10183000000E056E000E066E810E076E92EC21F012
:1018400026EC22F000C06DF201C06EF235C06FF2DE
:1018500036C070F29CEC1FF07DD0818031C000F06A
:1018600032C001F033C002F034C003F0000E046E49
:10187000000E056E000E066E810E076E92EC21F0D2
:1018800026EC22F000C06DF201C06EF235C06FF29E
:1018900036C070F29CEC1FF05DD0818419C000F05E
:1018A0001AC001F01BC002F01CC003F0000E046E51
:1018B000000E056E000E066E810E076E92EC21F092
:1018C00026EC22F000C06DF201C06EF235C06FF25E
:1018D00036C070F29CEC1FF03DD0000E3C1802E1C7
:1018E000010E3B18D8B4D6D6000E3C1802E1020E09
:1018F0003B18D8B4F1D6000E3C1802E1030E3B1899
:10190000D8B40BD7000E3C1802E1040E3B18D8B433
:1019100024D7000E3C1802E1050E3B18D8B43DD781
:10192000000E3C1802E1060E3B18D8B456D7000E44
:101930003C1802E1070E3B18D8B46FD7000E3C18D4
:1019400002E1080E3B1889E0000E3C1802E1090E86
:101950003B18A3E0F7EC23F0820E0B6EFF0E0A6E2D
:101960000B2E01D003D00A2EFED7FAD7870E0A6EAF
:101970000A2EFED70000374A382A16D61200DC0E8F
:10198000356E000E366E050E376E010E386E490E3E
:10199000396E010E3A6E880E3B6E010E3C6EB80E2B
:1019A0003D6E010E3E6EB80E3F6E010E406EB80EDB
:1019B000416E010E426EB80E436E010E446EB80EBB
:1019C000456E010E466EB80E476E010E486E880ECB
:1019D000496E010E4A6E0A0E4B6E020E4C6EEE0EF2
:1019E0004D6E010E4E6E880E4F6E010E506E490EFA
:1019F000516E010E526EB80E536E010E546E880E6B
:101A0000556E010E566E880E576E010E586E490EB9
:101A1000596E010E5A6E250E5B6E010E5C6E250E20
:101A20005D6E010E5E6E490E5F6E010E0001606F0D
:101A30000A0E616F020E626FEE0E636F010E646F2D
:101A4000880E656F010E666F490E676F010E686F35
:101A5000B80E696F010E6A6FB80E6B6F010E6C6F76
:101A6000B80E6D6F010E6E6FB80E6F6F010E706F56
:101A7000B80E716F010E726FB80E736F010E746F36
:101A8000880E756F010E766F0A0E776F020E786FF3
:101A9000EE0E796F010E7A6F880E7B6F010E7C6FF0
:101AA000490E7D6F010E7E6FB80E7F6F010E806F45
:101AB000880E816F010E826F880E836F010E846F16
:101AC000490E856F010E866F250E876F010E886F98
:101AD000250E896F010E8A6F490E8B6F010E8C6F78
:101AE000DC0E8D6F000E8E6F050E8F6F010E906FE6
:101AF000490E916F010E926F880E936F010E946FD5
:101B0000B80E956F010E966FB80E976F010E986F15
:101B1000B80E996F010E9A6FB80E9B6F010E9C6FF5
:101B2000B80E9D6F010E9E6FB80E9F6F010EA06FD5
:101B3000880EA16F010EA26F0A0EA36F020EA46F92
:101B4000EE0EA56F010EA66F880EA76F010EA86F8F
:101B5000490EA96F010EAA6FB80EAB6F010EAC6FE4
:101B6000880EAD6F010EAE6F880EAF6F010EB06FB5
:101B7000490EB16F010EB26F250EB36F010EB46F37
:101B8000250EB56F010EB66F490EB76F010EB86F17
:101B90000A0EB96F020EBA6FEE0EBB6F010EBC6F6C
:101BA000880EBD6F010EBE6F490EBF6F010EC06F74
:101BB000B80EC16F010EC26FB80EC36F010EC46FB5
:101BC000B80EC56F010EC66FB80EC76F010EC86F95
:101BD000B80EC96F010ECA6FB80ECB6F010ECC6F75
:101BE000880ECD6F010ECE6F0A0ECF6F020ED06F32
:101BF000EE0ED16F010ED26F880ED36F010ED46F2F
:101C0000490ED56F010ED66FB80ED76F010ED86F83
:101C1000880ED96F010EDA6F880EDB6F010EDC6F54
:101C2000490EDD6F010EDE6F250EDF6F010EE06FD6
:101C3000250EE16F010EE26F490EE36F010EE46FB6
:101C4000E56BE66BE76BE86BE96BEA6BEB6BEC6BF8
:101C5000ED6BEE6BEF6BF06BF16BF26BF36BF46BA8
:101C6000F56BF66BF76BF86BF96BFA6BFB6BFC6B58
:101C70002C0EFD6F010EFE6F2C0EFF6F010E010189
:101C8000006F2C0E016F010E026F2C0E036F010E00
:101C9000046F2C0E056F010E066F2C0E076F010EE0
:101CA000086F2C0E096F010E0A6F2C0E0B6F010EC0
:101CB0000C6F2C0E0D6F010E0E6F2C0E0F6F010EA0
:101CC000106FC80E116F000E126F2C0E136F010EE5
:101CD000146F2C0E156F010E166F2C0E176F010E60
:101CE000186F2C0E196F010E1A6F2C0E1B6F010E40
:101CF0001C6F2C0E1D6F010E1E6F2C0E1F6F010E20
:101D0000206F2C0E216F010E226F2C0E236F010EFF
:101D1000246F2C0E256F010E266FC80E276F000E44
:101D2000286F2C0E296F010E2A6F2C0E2B6F010EBF
:101D30002C6F2C0E2D6F010E2E6F2C0E2F6F010E9F
:101D4000306F2C0E316F010E326F2C0E336F010E7F
:101D5000346F2C0E356F010E366F2C0E376F010E5F
:101D6000386F2C0E396F010E3A6F2C0E3B6F010E3F
:101D70003C6FC80E3D6F000E3E6F2C0E3F6F010E84
:101D8000406F2C0E416F010E426F2C0E436F010EFF
:101D9000446F2C0E456F010E466F2C0E476F010EDF
:101DA000486F2C0E496F010E4A6F2C0E4B6F010EBF
:101DB0004C6F2C0E4D6F010E4E6F2C0E4F6F010E9F
:101DC000506F2C0E516F010E526FC80E536F000EE4
:101DD000546F2C0E556F010E566F2C0E576F010E5F
:101DE000586F2C0E596F010E5A6F2C0E5B6F010E3F
:101DF0005C6F2C0E5D6F010E5E6F2C0E5F6F010E1F
:101E0000606F2C0E616F010E626F2C0E636F010EFE
:101E1000646F2C0E656F010E666F2C0E676F010EDE
:101E2000686FC80E696F000E6A6F2C0E6B6F010E23
:101E30006C6F2C0E6D6F010E6E6F2C0E6F6F010E9E
:101E4000706F2C0E716F010E726F2C0E736F010E7E
:101E5000746F2C0E756F010E766F2C0E776F010E5E
:101E6000786F2C0E796F010E7A6F2C0E7B6F010E3E
:101E70007C6F2C0E7D6F010E7E6FC80E7F6F000E83
:101E8000806F2C0E816F010E826F2C0E836F010EFE
:101E9000846F2C0E856F010E866F2C0E876F010EDE
:101EA000886F2C0E896F010E8A6F2C0E8B6F010EBE
:101EB0008C6F2C0E8D6F010E8E6F2C0E8F6F010E9E
:101EC000906F2C0E916F010E926F2C0E936F010E7E
:101ED000946FC80E956F000E966F2C0E976F010EC3
:101EE000986F2C0E996F010E9A6F2C0E9B6F010E3E
:101EF0009C6F2C0E9D6F010E9E6F2C0E9F6F010E1E
:101F0000A06F2C0EA16F010EA26F2C0EA36F010EFD
:101F1000A46F2C0EA56F010EA66F2C0EA76F010EDD
:101F2000A86F2C0EA96F010EAA6FC80EAB6F000E22
:101F3000AC6FAD6BAE6BAF6BB06BB16BB26BB36BC9
:101F4000B46BB56BB66BB76BB86BB96BBA6BBB6B7D
:101F5000BC6BBD6BBE6BBF6BC06BC16BC26BC36B2D
:101F6000C46B640E0201616F000E626F350E636F09
:101F7000000E646FFD0E656F000E666FD1EC1EF0F3
:101F80001200150E356E010E366E370E376E010ECD
:101F9000386E5D0E396E010E3A6E9F0E3B6E010E6D
:101FA0003C6E370E3D6E010E3E6E000E3F6E000E13
:101FB000406E5D0E416E010E426E370E436E010E95
:101FC000446E150E456E010E466EE60E476E000E0F
:101FD000486E150E496E010E4A6E150E4B6E010EBF
:101FE0004C6E370E4D6E010E4E6E5D0E4F6E010E35
:101FF000506E9F0E516E010E526E370E536E010ED3
:10200000546E150E556E010E566E050E576E010E6E
:10201000586EE60E596E000E5A6E000E5B6E000E84
:102020005C6E150E5D6E010E5E6E370E5F6E010EFC
:102030000001606F5D0E616F010E626F9F0E636F36
:10204000010E646F370E656F010E666F000E676FCD
:10205000000E686F5D0E696F010E6A6F370E6B6F51
:10206000010E6C6F150E6D6F010E6E6FE60E6F6FC9
:10207000000E706F150E716F010E726F150E736F7B
:10208000010E746F370E756F010E766F5D0E776FF0
:10209000010E786F9F0E796F010E7A6F0A0E7B6FBB
:1020A000020E7C6F9F0E7D6F010E7E6FD20E7F6FD2
:1020B000010E806F000E816F000E826FD20E836F53
:1020C000010E846F9F0E856F010E866F720E876FF3
:1020D000010E886F5D0E896F010E8A6F000E8B6F87
:1020E000000E8C6F9F0E8D6F010E8E6F5D0E8F6FC9
:1020F000010E906F050E916F010E926FE60E936FB9
:10210000000E946F150E956F010E966F150E976F5A
:10211000010E986F000E996F000E9A6F5D0E9B6F07
:10212000010E9C6F370E9D6F010E9E6F150E9F6FF7
:10213000010EA06F370EA16F010EA26F5D0EA36F8F
:10214000010EA46FD20EA56F000EA66F000EA76F32
:10215000000EA86F5D0EA96F010EAA6F0A0EAB6F7D
:10216000020EAC6F9F0EAD6F010EAE6FD20EAF6F51
:10217000010EB06F050EB16F010EB26F150EB36F89
:10218000010EB46F5D0EB56F010EB66F370EB76FEF
:10219000010EB86F150EB96F010EBA6F050EBB6F49
:1021A000010EBC6F150EBD6F010EBE6F150EBF6F19
:1021B000010EC06F150EC16F010EC26F5D0EC36FB1
:1021C000010EC46F370EC56F010EC66F150EC76FB7
:1021D000010EC86F050EC96F010ECA6F150ECB6FC9
:1021E000010ECC6F150ECD6F010ECE6F150ECF6F99
:1021F000010ED06F370ED16F010ED26F5D0ED36F0F
:10220000010ED46F150ED56F010ED66F5D0ED76F10
:10221000010ED86F9F0ED96F010EDA6F2A0EDB6F99
:10222000020EDC6FDD6BDE6BDF6BE06BE16BE26B94
:10223000E36BE46BE56BE66BE76BE86BE96BEA6B12
:10224000EB6BEC6BED6BEE6BEF6BF06BF16BF26BC2
:10225000F36BF46BF56BF66BF76BF86BF96BFA6B72
:10226000FB6BFC6B900EFD6F010EFE6F900EFF6F0F
:10227000010E0101006F840E016F030E026F840EC8
:10228000036F030E046FB00E056F040E066FBC0ED5
:10229000076F020E086F840E096F030E0A6F900E0F
:1022A0000B6F010E0C6F900E0D6F010E0E6F900EE6
:1022B0000F6F010E106F900E116F010E126F900EC6
:1022C000136F010E146F900E156F010E166F840EB2
:1022D000176F030E186F840E196F030E1A6F840E9A
:1022E0001B6F030E1C6F900E1D6F010E1E6F900E64
:1022F0001F6F010E206FDC0E216F050E226F140E72
:10230000236F050E246F900E256F010E266F900E21
:10231000276F010E286F840E296F030E2A6F840E1B
:102320002B6F030E2C6FB00E2D6F040E2E6FBC0E94
:102330002F6F020E306F840E316F030E326F900ECE
:10234000336F010E346F900E356F010E366F900EA5
:10235000376F010E386F900E396F010E3A6F900E85
:102360003B6F010E3C6F900E3D6F010E3E6F840E71
:102370003F6F030E406F840E416F030E426F840E59
:10238000436F030E446F840E456F030E466FC40EF9
:10239000476F090E486FDC0E496F050E4A6F840EB9
:1023A0004B6F030E4C6F840E4D6F030E4E6F840EF9
:1023B0004F6F030E506FC40E516F090E526FDC0E3B
:1023C000536F050E546F840E556F030E566F840EB7
:1023D000576F030E586F840E596F030E5A6F900E8D
:1023E0005B6F010E5C6F900E5D6F010E5E6F080EED
:1023F0005F6F070E606FDC0E616F050E626F840EFB
:10240000636F030E646F840E656F030E666F840E38
:10241000676F030E686F900E696F010E6A6F900E02
:102420006B6F010E6C6F080E6D6F070E6E6FDC0E1A
:102430006F6F050E706F840E716F030E726F840ED6
:10244000736F030E746F840E756F030E766F900EAC
:10245000776F010E786F900E796F010E7A6F900E84
:102460007B6F010E7C6F900E7D6F010E7E6F900E64
:102470007F6F010E806F900E816F010E826F900E44
:10248000836F010E846F900E856F010E866F840E30
:10249000876F030E886F900E896F010E8A6F900E02
:1024A0008B6F010E8C6F900E8D6F010E8E6F900EE4
:1024B0008F6F010E906F900E916F010E926F900EC4
:1024C000936F010E946F840E956F030E966F900EAE
:1024D000976F010E986F900E996F010E9A6F900E84
:1024E0009B6F010E9C6F900E9D6F010E9E6F900E64
:1024F0009F6F010EA06F900EA16F010EA26FDC0EF8
:10250000A36F050EA46FA56BA66BA76BA86BA96B39
:10251000AA6BAB6BAC6BAD6BAE6BAF6BB06BB16BF7
:10252000B26BB36BB46BB56BB66BB76BB86BB96BA7
:10253000BA6BBB6BBC6BBD6BBE6BBF6BC06BC16B57
:10254000C26BC36BC46B640E0201616F000E626FDD
:10255000350E636F000E646FFD0E656F000E666FC3
:10256000D1EC1EF01200490E356E010E366E5D0E76
:10257000376E010E386E880E396E010E3A6E5D0EA2
:102580003B6E010E3C6E490E3D6E010E3E6E000E1E
:102590003F6E000E406E490E416E010E426E5D0EA2
:1025A000436E010E446E880E456E010E466E5D0E42
:1025B000476E010E486E490E496E010E4A6E5D0E61
:1025C0004B6E010E4C6E490E4D6E010E4E6E250E79
:1025D0004F6E010E506E000E516E000E526E250EA3
:1025E000536E010E546E5D0E556E010E566E490E01
:1025F000576E010E586E250E596E010E5A6E250E3D
:102600005B6E010E5C6E250E5D6E010E5E6E490EF8
:102610005F6E010E0001606F5D0E616F010E626FF3
:10262000490E636F010E646F250E656F010E666FB4
:10263000050E676F010E686F000E696F000E6A6FFE
:10264000250E6B6F010E6C6F490E6D6F010E6E6F74
:102650005D0E6F6F010E706F490E716F010E726F1C
:10266000250E736F010E746F490E756F010E766F34
:10267000250E776F010E786F050E796F010E7A6F58
:10268000000E7B6F000E7C6FB80E7D6F010E7E6FAB
:102690005D0E7F6F010E806F0A0E816F020E826FDA
:1026A0004A0E836F020E846F0A0E856F020E866FCC
:1026B000EE0E876F010E886FB80E896F010E8A6F5C
:1026C000880E8B6F010E8C6F490E8D6F010E8E6F11
:1026D000880E8F6F010E906F880E916F010E926FB2
:1026E000720E936F010E946F5D0E956F010E966FD3
:1026F000000E976F000E986F250E996F010E9A6F5E
:10270000490E9B6F010E9C6F5D0E9D6F010E9E6FBB
:102710005D0E9F6F010EA06F490EA16F010EA26F9B
:10272000250EA36F010EA46F5D0EA56F010EA66F9F
:10273000490EA76F010EA86F000EA96F000EAA6FB9
:10274000050EAB6F010EAC6F880EAD6F010EAE6F54
:10275000000EAF6F000EB06FD20EB16F010EB26FF0
:10276000B80EB36F010EB46F000EB56F000EB66FEA
:10277000EE0EB76F010EB86F0A0EB96F020EBA6F88
:102780004A0EBB6F020EBC6F0A0EBD6F020EBE6F0B
:10279000EE0EBF6F010EC06FB80EC16F010EC26F9B
:1027A000880EC36F010EC46F000EC56F000EC66F9A
:1027B000D20EC76F010EC86FB80EC96F010ECA6F77
:1027C000880ECB6F010ECC6F490ECD6F010ECE6F10
:1027D0005D0ECF6F010ED06F5D0ED16F010ED26F07
:1027E000880ED36F010ED46F9F0ED56F010ED66F7A
:1027F0009F0ED76F010ED86F880ED96F010EDA6F5A
:102800005D0EDB6F010EDC6F9F0EDD6F010EDE6F64
:10281000880EDF6F010EE06F5D0EE16F010EE26F5B
:10282000490EE36F010EE46F250EE56F010EE66FB2
:10283000C80EE76F000EE86FC80EE96F000EEA6F72
:10284000900EEB6F010EEC6F900EED6F010EEE6FC0
:10285000900EEF6F010EF06F200EF16F030EF26F0E
:10286000C80EF36F000EF46FC80EF56F000EF66F12
:10287000900EF76F010EF86F900EF96F010EFA6F60
:10288000C80EFB6F000EFC6FC80EFD6F000EFE6FD2
:10289000C80EFF6F000E0101006FF40E016F010EF4
:1028A000026FFA0E036F000E046F900E056F010E9B
:1028B000066F900E076F010E086F900E096F010EE4
:1028C0000A6FC80E0B6F000E0C6F900E0D6F010E8D
:1028D0000E6FC80E0F6F000E106FC80E116F000E36
:1028E000126F900E136F010E146F900E156F010E84
:1028F000166FC80E176F000E186F900E196F010E2D
:102900001A6F200E1B6F030E1C6FC80E1D6F000E7A
:102910001E6FC80E1F6F000E206F900E216F010EEC
:10292000226F900E236F010E246FC80E256F000ECC
:10293000266FC80E276F000E286FC80E296F000E75
:102940002A6F200E2B6F030E2C6FE80E2D6F030ED7
:102950002E6F200E2F6F030E306F200E316F030E7F
:10296000326F200E336F030E346FBE0E356F000EC4
:10297000366FBE0E376F000E386FBE0E396F000E09
:102980003A6FBE0E3B6F000E3C6FE80E3D6F030EBC
:102990003E6F900E3F6F010E406FBC0E416F020EF6
:1029A000426F900E436F010E446F900E456F010E03
:1029B000466F200E476F030E486FC80E496F000E1A
:1029C0004A6FC80E4B6F000E4C6FC80E4D6F000E55
:1029D0004E6F900E4F6F010E506FC80E516F000E6C
:1029E000526F900E536F010E546F900E556F010E83
:1029F000566F900E576F010E586FE80E596F030E09
:102A00005A6FC80E5B6F000E5C6FC20E5D6F010ED9
:102A10005E6F200E5F6F030E606F960E616F000E8B
:102A2000626FE80E636F030E646FE80E656F030E4E
:102A3000666FC80E676F000E686FC80E696F000E74
:102A40006A6FC80E6B6F000E6C6F900E6D6F010E8B
:102A50006E6F900E6F6F010E706F900E716F010EA2
:102A6000726F900E736F010E746FE80E756F030E28
:102A7000766FF40E776F010E786F900E796F010EFE
:102A80007A6F900E7B6F010E7C6F900E7D6F010E42
:102A90007E6F900E7F6F010E806FE80E816F030EC8
:102AA000826FC80E836F000E846FC80E856F000E94
:102AB000866F900E876F010E886FC80E896F000EAB
:102AC0008A6F900E8B6F010E8C6F900E8D6F010EC2
:102AD0008E6F900E8F6F010E906FE80E916F030E48
:102AE000926FC80E936F000E946FC80E956F000E14
:102AF000966F580E976F020E986F590E0201616F14
:102B0000000E626F350E636F000E646FE70E656F27
:102B1000000E666FD1EC1EF01200C40E356E000E72
:102B2000366EF70E376E000E386E050E396E010EDA
:102B30003A6E050E3B6E010E3C6EC40E3D6E000EED
:102B40003E6EF70E3F6E000E406E050E416E010E9A
:102B5000426E050E436E010E446E050E456E010E6B
:102B6000466E490E476E010E486E5D0E496E010EAF
:102B70004A6E5D0E4B6E010E4C6E050E4D6E010ED3
:102B80004E6E490E4F6E010E506E5D0E516E010E6F
:102B9000526E5D0E536E010E546E000E556E000E99
:102BA000566E880E576E010E586E880E596E010EC5
:102BB0005A6E880E5B6E010E5C6EB80E5D6E010E75
:102BC0005E6E490E5F6E010E0001606F5D0E616FFB
:102BD000010E626F880E636F010E646F880E656F61
:102BE000010E666F880E676F010E686F880E696F41
:102BF000010E6A6F5D0E6B6F010E6C6F880E6D6F4C
:102C0000010E6E6F250E6F6F010E706F250E716FC6
:102C1000010E726F250E736F010E746F5D0E756F6E
:102C2000010E766F880E776F010E786F5D0E796FEB
:102C3000010E7A6F490E7B6F010E7C6FC40E7D6FA3
:102C4000000E7E6FF70E7F6F000E806F050E816F96
:102C5000010E826F050E836F010E846FC40E856FA7
:102C6000000E866FF70E876F000E886F050E896F56
:102C7000010E8A6F050E8B6F010E8C6F050E8D6F26
:102C8000010E8E6F490E8F6F010E906F5D0E916F6A
:102C9000010E926F5D0E936F010E946F050E956F8E
:102CA000010E966F490E976F010E986F5D0E996F2A
:102CB000010E9A6F5D0E9B6F010E9C6F000E9D6F53
:102CC000000E9E6F880E9F6F010EA06F880EA16F81
:102CD000010EA26F880EA36F010EA46FB80EA56F30
:102CE000010EA66F490EA76F010EA86F5D0EA96FAA
:102CF000010EAA6F880EAB6F010EAC6F880EAD6F20
:102D0000010EAE6F880EAF6F010EB06FB80EB16FCF
:102D1000010EB26F490EB36F010EB46F5D0EB56F49
:102D2000010EB66F880EB76F010EB86F880EB96FBF
:102D3000010EBA6F880EBB6F010EBC6F880EBD6F9F
:102D4000010EBE6FB80EBF6F010EC06FEE0EC16FE9
:102D5000010EC26F0A0EC36F020EC46F900EC56FD4
:102D6000010EC66F900EC76F010EC86FC80EC96FF7
:102D7000000ECA6FBC0ECB6F020ECC6F900ECD6FE3
:102D8000010ECE6F900ECF6F010ED06FC80ED16FB7
:102D9000000ED26FBC0ED36F020ED46F900ED56FA3
:102DA000010ED66F900ED76F010ED86FC80ED96F77
:102DB000000EDA6FBC0EDB6F020EDC6F900EDD6F63
:102DC000010EDE6F900EDF6F010EE06FC80EE16F37
:102DD000000EE26FBC0EE36F020EE46F2C0EE56F87
:102DE000010EE66F900EE76F010EE86F900EE96F2F
:102DF000010EEA6FB40EEB6F000EEC6FB40EED6FC8
:102E0000000EEE6FB40EEF6F000EF06FB40EF16FA8
:102E1000000EF26F900EF36F010EF46F900EF56FCF
:102E2000010EF66F900EF76F010EF86FC80EF96F76
:102E3000000EFA6FC80EFB6F000EFC6F900EFD6F58
:102E4000010EFE6F900EFF6F010E0101006F900EDC
:102E5000016F010E026FC80E036F000E046FC80EE3
:102E6000056F000E066F900E076F010E086F900E33
:102E7000096F010E0A6F900E0B6F010E0C6F900E12
:102E80000D6F010E0E6F900E0F6F010E106FC80EBA
:102E9000116F000E126FBC0E136F020E146F900EA6
:102EA000156F010E166F900E176F010E186FC80E7A
:102EB000196F000E1A6FBC0E1B6F020E1C6F900E66
:102EC0001D6F010E1E6F900E1F6F010E206FC80E3A
:102ED000216F000E226FBC0E236F020E246F900E26
:102EE000256F010E266F900E276F010E286FC80EFA
:102EF000296F000E2A6FBC0E2B6F020E2C6F2C0E4A
:102F00002D6F010E2E6F900E2F6F010E306F900EF1
:102F1000316F010E326FB40E336F000E346FB40E8A
:102F2000356F000E366FB40E376F000E386FB40E6B
:102F3000396F000E3A6F900E3B6F010E3C6F900E92
:102F40003D6F010E3E6FB40E3F6F000E406FB40E2A
:102F5000416F000E426FB40E436F000E446FB40E0B
:102F6000456F000E466F900E476F010E486F900E32
:102F7000496F010E4A6FB40E4B6F000E4C6FB40ECA
:102F80004D6F000E4E6FB40E4F6F000E506FB40EAB
:102F9000516F000E526FF40E536F010E546F480EB6
:102FA0000201616F000E626F350E636F000E646F79
:102FB000C50E656F000E666FD1EC1EF01200B80EE4
:102FC000356E010E366E490E376E010E386EB80E34
:102FD000396E010E3A6EEE0E3B6E010E3C6E0A0E1D
:102FE0003D6E020E3E6EEE0E3F6E010E406EB80E4E
:102FF000416E010E426E880E436E010E446EB80E95
:10300000456E010E466E880E476E010E486E490EE3
:10301000496E010E4A6E000E4B6E000E4C6EB80EDD
:103020004D6E010E4E6E490E4F6E010E506EB80E73
:10303000516E010E526EEE0E536E010E546E0A0E5C
:10304000556E020E566EEE0E576E010E586E0A0E3B
:10305000596E020E5A6E4A0E5B6E020E5C6E0A0EBE
:103060005D6E020E5E6E4A0E5F6E020E0001606FB4
:10307000920E616F020E626F000E636F000E646F3E
:10308000B80E656F010E666F490E676F010E686FAF
:10309000B80E696F010E6A6FEE0E6B6F010E6C6FEA
:1030A0000A0E6D6F020E6E6FEE0E6F6F010E706F77
:1030B000B80E716F010E726F880E736F010E746F10
:1030C000B80E756F010E766F880E776F010E786FF0
:1030D000490E796F010E7A6F000E7B6F000E7C6FC8
:1030E000050E7D6F010E7E6F250E7F6F010E806FC6
:1030F000490E816F010E826F490E836F010E846F3E
:10310000490E856F010E866F490E876F010E886F1D
:10311000250E896F010E8A6F880E8B6F010E8C6FE2
:10312000050E8D6F010E8E6F050E8F6F010E906F65
:10313000F70E916F000E926FC40E936F000E946F96
:10314000DC0E956F000E966F840E976F030E986FCE
:103150002C0E996F010E9A6F2C0E9B6F010E9C6FB7
:103160002C0E9D6F010E9E6F580E9F6F020EA06F6A
:10317000580EA16F020EA26F580EA36F020EA46F1D
:10318000840EA56F030EA66F2C0EA76F010EA86FFD
:10319000580EA96F020EAA6F840EAB6F030EAC6FB0
:1031A000E80EAD6F030EAE6F840EAF6F030EB06FFF
:1031B0002C0EB16F010EB26F2C0EB36F010EB46FF7
:1031C0002C0EB56F010EB66F580EB76F020EB86FAA
:1031D000580EB96F020EBA6F580EBB6F020EBC6F5D
:1031E000840EBD6F030EBE6F2C0EBF6F010EC06F3D
:1031F000580EC16F020EC26F840EC36F030EC46FF0
:10320000E80EC56F030EC66F840EC76F030EC86F3E
:103210002C0EC96F010ECA6F2C0ECB6F010ECC6F36
:103220002C0ECD6F010ECE6F580ECF6F020ED06FE9
:10323000580ED16F020ED26F580ED36F020ED46F9C
:10324000840ED56F030ED66F2C0ED76F010ED86F7C
:10325000580ED96F020EDA6F840EDB6F030EDC6F2F
:10326000F40EDD6F010EDE6F2C0EDF6F010EE06FCE
:103270002C0EE16F010EE26F580EE36F020EE46F49
:10328000580EE56F020EE66F580EE76F020EE86FFC
:10329000580EE96F020EEA6F840EEB6F030EEC6FAF
:1032A0002C0EED6F010EEE6F840EEF6F030EF06FBC
:1032B0002C0EF16F010EF26F2C0EF36F010EF46FF6
:1032C0002C0EF56F010EF66F840EF76F030EF86F7C
:1032D000310E0201616F000E626F350E636F000EDA
:1032E000646F970E656F000E666FD1EC1EF01200D2
:1032F00000010B6A0A6A096A086A0E6A0334083612
:103300000450085E0550D8A0053C095E0650D8A0C0
:10331000063C0A5E0750D8A0073C0B5EE86AD8A0BE
:10332000010E0E5E0336070E0C6E033408360936A6
:103330000A360B360E36045003A0B2EF19F0085EC1
:103340000550D8A0053C095E0650D8A0063C0A5E90
:103350000750D8A0073C0B5EE86AD8A0010E0E5EAD
:10336000C3EF19F008260550D8B0053C09260650D1
:10337000D8B0063C0A260750D8B0073C0B26E86AAE
:10338000D8B0010E0E2603360C2E95EF19F002343C
:10339000083609360A360B360E36045003A0E4EF21
:1033A00019F0085E0550D8A0053C095E0650D8A06B
:1033B000063C0A5E0750D8A0073C0B5EE86AD8A01E
:1033C000010E0E5EF5EF19F008260550D8B0053C49
:1033D00009260650D8B0063C0A260750D8B0073C4C
:1033E0000B26E86AD8B0010E0E260236070E0C6EC8
:1033F0000234083609360A360B360E36045002A05F
:1034000015EF1AF0085E0550D8A0053C095E06507D
:10341000D8A0063C0A5E0750D8A0073C0B5EE86ABD
:10342000D8A0010E0E5E26EF1AF008260550D8B07F
:10343000053C09260650D8B0063C0A260750D8B0ED
:10344000073C0B26E86AD8B0010E0E2602360C2E79
:10345000F8EF19F00134083609360A360B360E3605
:10346000045002A047EF1AF0085E0550D8A0053CB2
:10347000095E0650D8A0063C0A5E0750D8A0073C5B
:103480000B5EE86AD8A0010E0E5E58EF1AF008260F
:103490000550D8B0053C09260650D8B0063C0A268F
:1034A0000750D8B0073C0B26E86AD8B0010E0E26AC
:1034B0000136070E0C6E0134083609360A360B3613
:1034C0000E36045001A078EF1AF0085E0550D8A01F
:1034D000053C095E0650D8A0063C0A5E0750D8A0FD
:1034E000073C0B5EE86AD8A0010E0E5E89EF1AF069
:1034F00008260550D8B0053C09260650D8B0063C31
:103500000A260750D8B0073C0B26E86AD8B0010E4F
:103510000E2601360C2E5BEF1AF000340836093601
:103520000A360B360E36045001A0AAEF1AF0085ED8
:103530000550D8A0053C095E0650D8A0063C0A5E9E
:103540000750D8A0073C0B5EE86AD8A0010E0E5EBB
:10355000BBEF1AF008260550D8B0053C09260650E6
:10356000D8B0063C0A260750D8B0073C0B26E86ABC
:10357000D8B0010E0E260036070E0C6E0034083649
:1035800009360A360B360E36045000A0DBEF1AF06F
:10359000085E0550D8A0053C095E0650D8A0063C40
:1035A0000A5E0750D8A0073C0B5EE86AD8A0010E5F
:1035B0000E5EECEF1AF008260550D8B0053C09263F
:1035C0000650D8B0063C0A260750D8B0073C0B2658
:1035D000E86AD8B0010E0E2600360C2EBEEF1AF0A7
:1035E00000B001EF1BF0045008260550D8B0053C90
:1035F00009260650D8B0063C0A260750D8B0073C2A
:103600000B261200016A80B2012A0150010AD8A4D7
:1036100055D18382820E0B6EFF0E0A6E0B2E01D0E7
:1036200003D00A2EFED7FAD7870E0A6E0A2EFED7CF
:10363000000083928284820E0B6EFF0E0A6E0B2EA8
:1036400001D003D00A2EFED7FAD7870E0A6E0A2EB3
:10365000FED7000082948384820E0B6EFF0E0A6EEA
:103660000B2E01D003D00A2EFED7FAD7870E0A6E92
:103670000A2EFED700008394828C820E0B6EFF0E02
:103680000A6E0B2E01D003D00A2EFED7FAD7870E72
:103690000A6E0A2EFED70000829C8388820E0B6E73
:1036A000FF0E0A6E0B2E01D003D00A2EFED7FAD7DA
:1036B000870E0A6E0A2EFED700008398838C820E36
:1036C0000B6EFF0E0A6E0B2E01D003D00A2EFED712
:1036D000FAD7870E0A6E0A2EFED70000839C8180DF
:1036E000820E0B6EFF0E0A6E0B2E01D003D00A2E37
:1036F000FED7FAD7870E0A6E0A2EFED700008190F9
:103700008184820E0B6EFF0E0A6E0B2E01D003D049
:103710000A2EFED7FAD7870E0A6E0A2EFED70000B1
:1037200081948188820E0B6EFF0E0A6E0B2E01D0E3
:1037300003D00A2EFED7FAD7870E0A6E0A2EFED7BE
:1037400000008198818C820E0B6EFF0E0A6E0B2E8C
:1037500001D003D00A2EFED7FAD7870E0A6E0A2EA2
:10376000FED70000819C8086820E0B6EFF0E0A6ED3
:103770000B2E01D003D00A2EFED7FAD7870E0A6E81
:103780000A2EFED700008096818C820E0B6EFF0EF3
:103790000A6E0B2E01D003D00A2EFED7FAD7870E61
:1037A0000A6E0A2EFED70000819C8188820E0B6E65
:1037B000FF0E0A6E0B2E01D003D00A2EFED7FAD7C9
:1037C000870E0A6E0A2EFED7000081988184820E31
:1037D0000B6EFF0E0A6E0B2E01D003D00A2EFED701
:1037E000FAD7870E0A6E0A2EFED7000081948180D8
:1037F000820E0B6EFF0E0A6E0B2E01D003D00A2E26
:10380000FED7FAD7870E0A6E0A2EFED700008190E7
:10381000838C820E0B6EFF0E0A6E0B2E01D003D02E
:103820000A2EFED7FAD7870E0A6E0A2EFED70000A0
:10383000839C8388820E0B6EFF0E0A6E0B2E01D0C6
:1038400003D00A2EFED7FAD7870E0A6E0A2EFED7AD
:1038500000008398828C820E0B6EFF0E0A6E0B2E78
:1038600001D003D00A2EFED7FAD7870E0A6E0A2E91
:10387000FED70000829C8384820E0B6EFF0E0A6EC0
:103880000B2E01D003D00A2EFED7FAD7870E0A6E70
:103890000A2EFED7000083948284820E0B6EFF0EE8
:1038A0000A6E0B2E01D003D00A2EFED7FAD7870E50
:1038B0000A6E0A2EFED700008294A4D61200250EAE
:1038C000356E010E366E880E376E010E386E880E1C
:1038D000396E010E3A6EB80E3B6E010E3C6EEE0E66
:1038E0003D6E010E3E6E880E3F6E010E406E4A0E1A
:1038F000416E020E426E0A0E436E020E446EEE0ED2
:10390000456E010E466EEE0E476E010E486E0A0EB3
:10391000496E020E4A6E4A0E4B6E020E4C6E0A0E35
:103920004D6E020E4E6EEE0E4F6E010E506E0A0E72
:10393000516E020E526E4A0E536E020E546EB80E47
:10394000556E010E566E880E576E010E586EB80EEB
:10395000596E010E5A6EEE0E5B6E010E5C6EB80E65
:103960005D6E010E5E6E000E5F6E000E0001606FF8
:10397000250E616F010E626F880E636F010E646F1A
:10398000880E656F010E666FB80E676F010E686F67
:10399000EE0E696F010E6A6F880E6B6F010E6C6F11
:1039A0004A0E6D6F020E6E6F0A0E6F6F020E706F11
:1039B000EE0E716F010E726FEE0E736F010E746F6B
:1039C0000A0E756F020E766F4A0E776F020E786FD1
:1039D000EE0E796F010E7A6F0A0E7B6F020E7C6F0E
:1039E000B80E7D6F010E7E6F880E7F6F010E806FA7
:1039F000880E816F010E826F900E836F010E846FAF
:103A0000900E856F010E866FC80E876F000E886F4F
:103A1000C80E896F000E8A6F900E8B6F010E8C6F2F
:103A2000900E8D6F010E8E6FBC0E8F6F020E906F19
:103A3000640E916F000E926FBC0E936F020E946F26
:103A4000C80E956F000E966F900E976F010E986FCF
:103A5000C80E996F000E9A6FC80E9B6F000E9C6F78
:103A6000C80E9D6F000E9E6FC80E9F6F000EA06F58
:103A7000900EA16F010EA26FC80EA36F000EA46F6F
:103A8000C80EA56F000EA66FC80EA76F000EA86F18
:103A9000C80EA96F000EAA6F900EAB6F010EAC6F2F
:103AA000280EAD6F000EAE6F900EAF6F010EB06FAF
:103AB000900EB16F010EB26FC80EB36F000EB46FEF
:103AC000C80EB56F000EB66F900EB76F010EB86FCF
:103AD000900EB96F010EBA6FBC0EBB6F020EBC6FB9
:103AE000640EBD6F000EBE6FBC0EBF6F020EC06FC6
:103AF000C80EC16F000EC26FC80EC36F000EC46F38
:103B0000C80EC56F000EC66FC80EC76F000EC86F17
:103B1000C80EC96F000ECA6FBC0ECB6F020ECC6F01
:103B2000C80ECD6F000ECE6F200ECF6F030ED06F7C
:103B3000270E0201616F000E626F350E636F000E7B
:103B4000646F830E656F000E666FD1EC1EF012007D
:103B5000490E356E010E366E250E376E010E386E2B
:103B6000050E396E010E3A6EF70E3B6E000E3C6E7E
:103B7000050E3D6E010E3E6E250E3F6E010E406E2F
:103B8000490E416E010E426E050E436E010E446EEB
:103B9000880E456E010E466E000E476E000E486E92
:103BA000490E496E010E4A6E050E4B6E010E4C6EAB
:103BB000B80E4D6E010E4E6E0A0E4F6E020E506E16
:103BC000880E516E010E526E000E536E000E546E32
:103BD000B80E556E010E566EEE0E576E010E586EF3
:103BE0000A0E596E020E5A6E0A0E5B6E020E5C6E63
:103BF000EE0E5D6E010E5E6EB80E5F6E010E000180
:103C0000606F880E616F010E626FB80E636F010EF8
:103C1000646FB80E656F010E666F880E676F010ED8
:103C2000686F490E696F010E6A6F050E6B6F010EAA
:103C30006C6F5D0E6D6F010E6E6F490E6F6F010E32
:103C4000706F5D0E716F010E726F880E736F010ED3
:103C5000746FB80E756F010E766F5D0E776F010E83
:103C6000786F250E796F010E7A6F2C0E7B6F010E27
:103C70007C6F2C0E7D6F010E7E6FE80E7F6F030E42
:103C8000806F2C0E816F010E826F2C0E836F010EE0
:103C9000846F2C0E856F010E866F2C0E876F010EC0
:103CA000886F2C0E896F010E8A6FE80E8B6F030EE2
:103CB0008C6FE70E8D6F030E8E6F2C0E8F6F010EC3
:103CC000906F2C0E916F010E926FB00E936F040ED9
:103CD000946FB00E956F040E966FE80E976F030EFB
:103CE000986FF40E996F010E9A6F2C0E9B6F010E58
:103CF0009C6F2C0E9D6F010E9E6F200E9F6F030E0A
:103D0000A06F2C0EA16F010EA26FF40EA36F010E17
:103D1000A46F2C0EA56F010EA66F2C0EA76F010EBF
:103D2000A86F200EA96F030EAA6F2C0EAB6F010EA9
:103D3000AC6FF40EAD6F010EAE6F2C0EAF6F010EB7
:103D4000B06F2C0EB16F010EB26FE80EB36F030EA1
:103D5000B46F2C0EB56F010EB66F2C0EB76F010E3F
:103D6000B86F2C0EB96F010EBA6F2C0EBB6F010E1F
:103D7000BC6F2C0EBD6F010EBE6FE80EBF6F030E41
:103D8000C06F230E0201616F000E626F350E636F0C
:103D9000000E646F7B0E656F000E666FD1EC1EF037
:103DA00012000201676B686B800E6819006E800E4E
:103DB0006219005C02E16151675DD8B0BCD0010EB0
:103DC000046E67C200F068C201F00450020105E011
:103DD000003600900136FF0FF9D70201005063252D
:103DE000E96E01506421EA6EEECF02F0EECF03F0EF
:103DF000000E031802E1000E021838E1696B6A6BCD
:103E0000010E046E67C200F068C201F004500201A6
:103E100005E0003600900136FF0FF9D7020100508F
:103E20006525E96E01506621EA6EEECF02F0EECF15
:103E300003F0800E6A19006E800E0318005C02E128
:103E40000250695D11E2030E0B6EFF0E0A6E0B2E1F
:103E500001D003D00A2EFED7FAD7960E0A6E0A2E8C
:103E6000FED7694B6A2BCCD7020161D00201010E4B
:103E7000046E67C200F068C201F00450020105E060
:103E8000003600900136FF0FF9D70201005063257C
:103E9000E96E01506421EA6EEECF6DF2EECF6EF264
:103EA00051EC20F0010E046E67C26BF268C26CF236
:103EB000045006E002016B376B916C37FF0FF9D7A6
:103EC00002016B516325E96E6C516421EA6EEECFFD
:103ED00000F0EECF01F0010E046E0450020105E087
:103EE000003600900136FF0FF9D7020100C06DF2D5
:103EF00001C06EF26B516525E96E6C516621EA6E68
:103F0000EECF6FF2EECF70F29CEC1FF0F7EC23F0E7
:103F10005B0E0B6EFF0E0A6E0B2E01D003D00A2E25
:103F2000FED7FAD7AB0E0A6E0A2EFED700000201AA
:103F3000674B682B39D71200EFEC23F0E80E046EC4
:103F4000030E056E000E066E076E37EC23F000C000
:103F500073F201C074F202C075F203C076F26DC252
:103F600004F06EC205F0000E066E076E78EC19F0D4
:103F700000C073F201C074F202C075F203C076F2A1
:103F8000030E046E0450000107E0033202320132D6
:103F90000032039EFF0FF7D7000100C071F201C08D
:103FA00072F2EFEC23F06FC204F070C205F0000E65
:103FB000066E076E37EC23F000C077F201C078F28E
:103FC00002C079F203C07AF271C200F072C201F04D
:103FD000000E026E036E030E046E0450000107E033
:103FE00000360090013602360336FF0FF7D7000186
:103FF00000C004F001C005F002C006F003C007F0E5
:1040000077C200F078C201F079C202F07AC203F000
:1040100078EC19F000C073F201C074F202C075F2BE
:1040200003C076F20A0E046E000E056E71C200F037
:1040300072C201F084EC23F000C071F201C072F290
:10404000000E015C02E1030E005C0001D8A012002A
:10405000000115C0E9FF16C0EAFF73C200F074C288
:1040600001F075C202F076C203F0010E0201735F27
:10407000000E745B755B765B00500110021003103C
:104080000DE01750EF1271C27BF2A2EC23F0185032
:10409000EF1671C27BF2A2EC23F0DFD71850EF16B7
:1040A000120031D083828188A7D08382818CA4D0F2
:1040B0008382A2D08284A0D083849ED08384828C89
:1040C0009BD0828C99D0828C838896D0838894D020
:1040D000838C92D0838C81808FD081808DD08180A1
:1040E00081848AD0818488D08184818885D08188A8
:1040F00083D0818C81D080867FD0808682847CD062
:104100008086838479D0000E02016E1902E1AF0E21
:104110006D19C8E0000E6E1902E1C40E6D19C5E0FC
:10412000000E6E1902E1DC0E6D19C2E0000E6E1970
:1041300002E1F70E6D19BEE06E51010A02E1050EB3
:104140006D19BAE06E51010A02E1150E6D19B6E063
:104150006E51010A02E1250E6D19B3E06E51010A9C
:1041600002E1370E6D19AFE06E51010A02E1490E0E
:104170006D19ACE06E51010A02E15D0E6D19A8E007
:104180006E51010A02E1720E6D19A4E06E51010A2E
:1041900002E1880E6D19A1E06E51010A02E19F0E45
:1041A0006D199DE06E51010A02E1B80E6D199AE099
:1041B0006E51010A02E1D20E6D1996E06E51010AAC
:1041C00002E1EE0E6D1993E06E51020A02E10A0E51
:1041D0006D198FE06E51020A02E14A0E6D198BE0F3
:1041E0006E51020A02E1920E6D1987E06E51020AC9
:1041F00002E1BA0E6D1984E01200880E356E010ED0
:10420000366E4A0E376E020E386E0A0E396E020E88
:104210003A6EEE0E3B6E010E3C6EB80E3D6E010E18
:104220003E6E880E3F6E010E406E5D0E416E010EB9
:10423000426E880E436E010E446E050E456E010EF1
:10424000466EEE0E476E010E486EB80E496E010EB8
:104250004A6E880E4B6E010E4C6E5D0E4D6E010E59
:104260004E6E880E4F6E010E506E050E516E010E91
:10427000526E250E536E010E546E556A566A340EF8
:10428000576E080E586EBC0E596E020E5A6E780E9E
:104290005B6E050E5C6E1A0E5D6E040E5E6E5E0E3B
:1042A0005F6E010E0001606F5E0E616F010E626F46
:1042B0005E0E636F010E646F780E656F050E666F9C
:1042C000BC0E676F020E686F1A0E696F040E6A6F7C
:1042D0005E0E6B6F010E6C6F5E0E6D6F010E6E6F7A
:1042E0005E0E6F6F010E706F780E716F050E726F3C
:1042F000BC0E736F020E746F340E756F080E766FFE
:10430000776B786B110E0201616F000E626F350ED4
:10431000636F000E646F570E656F000E666FD1EC11
:104320001EF012000001086A096A000E07620364A9
:1043300018EF22F0025006180A6E075003267E0E70
:10434000D8A0A9EF21F0035ED8B01DEF22F0ADEFA9
:1043500021F0035ED8A022EF22F0028E068E02C06A
:104360000EF001C00BF000C00DF000500402F4CFBD
:104370000CF001500502F4CF00F0F3CF08F0040276
:10438000F3500C26F4500822000E00220D500502B6
:10439000F3500C26F4500822000E002202500402B2
:1043A000F3500826F450002202500502016A000E64
:1043B0000122F3500026F45001220D500602F35062
:1043C0000826F4500022026A000E012202220B503D
:1043D0000602F3500026F4500122000E02220E5075
:1043E0000602F3500126F450022202BE00EF22F032
:1043F00008360036013602360306D8B422EF22F022
:1044000013EF22F0D880800E08640030000E0022E6
:1044100001220222D8A013EF22F002320132003230
:10442000034A1DEF22F00AAE029E000E25EF22F095
:10443000010EE7EC23F025EF22F0020ED1EC23F081
:1044400025EF22F0040EC3EC23F0120000010B6AEA
:104450000C6A0A6A0350D8B471EF22F0028E8E0EF5
:10446000035E03BE39EF22F0D8B439EF22F075EFC6
:1044700022F0036D080E035CD8A050EF22F0036E0B
:10448000013602C001F0026A080E035CD8A050EFAA
:1044900022F00136016A0350D8A4D8905AEF22F0D6
:1044A0000350D8B45AEF22F0D89002320132032ED2
:1044B00054EF22F00BBC01A067EF22F0D8A067EF09
:1044C00022F0012AD8B4022A02BE84EF22F00AAEFA
:1044D0008AEF22F0021E011E012AD8B4022A8AEFB6
:1044E00022F0026A016A8AEF22F00B800BAE8EEF97
:1044F00022F0026A0AAE8EEF22F0FF0E026E016E0B
:104500000A3602328EEF22F0010E0C6EB4EC23F06C
:1045100090EF22F0000E0C6E90EF22F0FF0E0C6E6A
:104520000150006E0250016E12000A0E356E020E2E
:10453000366EEE0E376E010E386E4A0E396E020E72
:104540003A6EB80E3B6E010E3C6E880E3D6E010E4B
:104550003E6E000E3F6E000E406E5D0E416E010E0F
:10456000426E490E436E010E446EB80E456E010E4A
:10457000466E250E476E010E486E050E496E010E01
:104580004A6EB00E4B6E040E4C6EB00E4D6E040EA5
:104590004E6EB00E4F6E040E506EB00E516E040E85
:1045A000526EB00E536E040E546EB00E556E040E65
:1045B000566EB00E576E040E586EB00E596E040E45
:1045C0005A6EB00E5B6E040E5C6EB00E5D6E040E25
:1045D0005E6EB00E5F6E040E0001606F0B0E020186
:1045E000616F000E626F350E636F000E646F4B0ECD
:1045F000656F000E666FD1EC1EF01200000E216E8A
:10460000800E226E020E236E870E246E000E256E23
:10461000800E266E120E276E870E286E000E296EF3
:10462000800E2A6E240E2B6E870E2C6E000E2D6EC1
:10463000800E2E6E2E0E2F6E870E306E000E316E97
:10464000000E326E440E336E870E346E000E196EFD
:10465000000E1A6E5C0E1B6E870E1C6E000E1D6E19
:10466000000E1E6E770E1F6E870E206E1200000168
:10467000220E0C6E086A096A0A6A0B6A0C06D8B424
:1046800064EF23F0D8900B320A3209320832033239
:10469000023201320032D8A03EEF23F00C06D8B42B
:1046A0005CEF23F0045008260550092206500A2228
:1046B00007500B2243EF23F004500826055009222F
:1046C00006500A2207500B22120035C015F036C0E2
:1046D00016F037C001F0010E006E015004E0003604
:1046E0000090FF0FFBD700C017F0001E00C018F0AD
:1046F00035C0E9FF36C0EAFF0050EF16120E352430
:10470000E96E0050EF1612000001086A096A100EE7
:104710000C6E0134083609360450085E0550D8A0E6
:10472000053C095ED8B09CEF23F0045008260550E4
:10473000D8B0053C0926D890003601360C2E89EFFA
:1047400023F0120002017B077B077BC201F07B078D
:104750000150000803E200000000F7D7000000004D
:10476000000000000000120000010B800BAEC1EF42
:1047700023F0026A0AAEFF0E026E016E006E0A3668
:104780000232FF0E120000010B840BAECFEF23F0BC
:10479000010E036E026A016A006A0A360232FF0ED7
:1047A000120000010B820BAEDCEF23F003680268FD
:1047B000016800680A360232FF0E1200FF0E806E9A
:1047C000FF0E816EFF0E826EFF0E836E12000001DF
:1047D000026A016A006A086A036A000E1200400E4B
:1047E000006E1F0E016E000E026E036E1200806AD4
:1047F000816A826A836A1200FFFFFFFFFFFFFFFFEB
:020000040030CA
:0E000000FFF8FFFEFFFDBBFFFFFFFFFFFFFF4E
:00000001FF
